S01300004D75736963206C696768742E73726563D8
S11300000C942A000C9434000C9434000C943400A6
S11300100C9434000C9434000C9434000C9434008C
S11300200C9434000C9434000C9434000C9434007C
S11300300C9434000C9434000C9434000C9434006C
S11300400C9434000C9434000C9434000C9434005C
S11300500C94340011241FBECFE5D4E0DEBFCDBF25
S11300600E9436000C9446000C94000087B3806212
S113007087BB87B38F7787BBB79904C088B3806287
S113008088BBFACF88B38F7D88BBF6CFF894FFCFB7
S9030000FC
